Component: ARM Compiler 5.06 (build 20) Tool: armlink [4d35a3]

==============================================================================

Section Cross References

    startup_stm32f051x8.o(RESET) refers to startup_stm32f051x8.o(STACK) for __initial_sp
    startup_stm32f051x8.o(RESET) refers to startup_stm32f051x8.o(.text) for Reset_Handler
    startup_stm32f051x8.o(RESET) refers to stm32f0xx_it.o(i.NMI_Handler) for NMI_Handler
    startup_stm32f051x8.o(RESET) refers to stm32f0xx_it.o(i.HardFault_Handler) for HardFault_Handler
    startup_stm32f051x8.o(RESET) refers to stm32f0xx_it.o(i.SVC_Handler) for SVC_Handler
    startup_stm32f051x8.o(RESET) refers to stm32f0xx_it.o(i.PendSV_Handler) for PendSV_Handler
    startup_stm32f051x8.o(RESET) refers to stm32f0xx_it.o(i.SysTick_Handler) for SysTick_Handler
    startup_stm32f051x8.o(RESET) refers to stm32f0xx_it.o(i.DMA1_Channel2_3_IRQHandler) for DMA1_Channel2_3_IRQHandler
    startup_stm32f051x8.o(RESET) refers to stm32f0xx_it.o(i.USART1_IRQHandler) for USART1_IRQHandler
    startup_stm32f051x8.o(.text) refers to system_stm32f0xx.o(i.SystemInit) for SystemInit
    startup_stm32f051x8.o(.text) refers to entry.o(.ARM.Collect$$$$00000000) for __main
    system_stm32f0xx.o(i.SystemCoreClockUpdate) refers to uidiv.o(.text) for __aeabi_uidivmod
    system_stm32f0xx.o(i.SystemCoreClockUpdate) refers to system_stm32f0xx.o(.data) for .data
    system_stm32f0xx.o(i.SystemCoreClockUpdate) refers to system_stm32f0xx.o(.constdata) for .constdata
    stm32f0xx_hal_dma.o(i.DMA_CalcBaseAndBitshift) refers to uidiv.o(.text) for __aeabi_uidivmod
    stm32f0xx_hal_dma.o(i.HAL_DMA_DeInit) refers to stm32f0xx_hal_dma.o(i.DMA_CalcBaseAndBitshift) for DMA_CalcBaseAndBitshift
    stm32f0xx_hal_dma.o(i.HAL_DMA_Init) refers to stm32f0xx_hal_dma.o(i.DMA_CalcBaseAndBitshift) for DMA_CalcBaseAndBitshift
    stm32f0xx_hal_dma.o(i.HAL_DMA_PollForTransfer) refers to stm32f0xx_hal.o(i.HAL_GetTick) for HAL_GetTick
==============================================================================

Removing Unused input sections from the image.

    Removing startup_stm32f051x8.o(HEAP), (512 bytes).
    Removing system_stm32f0xx.o(.rev16_text), (4 bytes).
    Removing system_stm32f0xx.o(.revsh_text), (4 bytes).
    Removing system_stm32f0xx.o(i.SystemCoreClockUpdate), (108 bytes).
    Removing stm32f0xx_hal_dma.o(.rev16_text), (4 bytes).
    Removing stm32f0xx_hal_dma.o(.revsh_text), (4 bytes).
    Removing stm32f0xx_hal_dma.o(i.HAL_DMA_Abort), (44 bytes).
    Removing stm32f0xx_hal_dma.o(i.HAL_DMA_DeInit), (66 bytes).
    Removing stm32f0xx_hal_dma.o(i.HAL_DMA_GetError), (4 bytes).
    Removing stm32f0xx_hal_dma.o(i.HAL_DMA_GetState), (6 bytes).
    Removing stm32f0xx_hal_dma.o(i.HAL_DMA_PollForTransfer), (176 bytes).
    Removing stm32f0xx_hal_dma.o(i.HAL_DMA_RegisterCallback), (72 bytes).
    Removing stm32f0xx_hal_dma.o(i.HAL_DMA_Start), (74 bytes).
    Removing stm32f0xx_hal_dma.o(i.HAL_DMA_UnRegisterCallback), (78 bytes).
    Removing stm32f0xx_hal_pwr_ex.o(.rev16_text), (4 bytes).
    Removing stm32f0xx_hal_pwr_ex.o(.revsh_text), (4 bytes).
    Removing stm32f0xx_hal_pwr_ex.o(i.HAL_PWR_ConfigPVD), (104 bytes).
    Removing stm32f0xx_hal_pwr_ex.o(i.HAL_PWR_DisablePVD), (16 bytes).
==============================================================================

Image Symbol Table

    Local Symbols

    Symbol Name                              Value     Ov Type        Size  Object(Section)

    ../Drivers/STM32F0xx_HAL_Driver/Src/stm32f0xx_hal.c 0x00000000   Number         0  stm32f0xx_hal.o ABSOLUTE
    ../Drivers/STM32F0xx_HAL_Driver/Src/stm32f0xx_hal_cortex.c 0x00000000   Number         0  stm32f0xx_hal_cortex.o ABSOLUTE
    ../Drivers/STM32F0xx_HAL_Driver/Src/stm32f0xx_hal_dma.c 0x00000000   Number         0  stm32f0xx_hal_dma.o ABSOLUTE
    ../Drivers/STM32F0xx_HAL_Driver/Src/stm32f0xx_hal_flash.c 0x00000000   Number         0  stm32f0xx_hal_flash.o ABSOLUTE
    ../Drivers/STM32F0xx_HAL_Driver/Src/stm32f0xx_hal_flash_ex.c 0x00000000   Number         0  stm32f0xx_hal_flash_ex.o ABSOLUTE
    ../Drivers/STM32F0xx_HAL_Driver/Src/stm32f0xx_hal_gpio.c 0x00000000   Number         0  stm32f0xx_hal_gpio.o ABSOLUTE
    ../Drivers/STM32F0xx_HAL_Driver/Src/stm32f0xx_hal_i2c.c 0x00000000   Number         0  stm32f0xx_hal_i2c.o ABSOLUTE
    ../Drivers/STM32F0xx_HAL_Driver/Src/stm32f0xx_hal_i2c_ex.c 0x00000000   Number         0  stm32f0xx_hal_i2c_ex.o ABSOLUTE
    ../Drivers/STM32F0xx_HAL_Driver/Src/stm32f0xx_hal_pwr.c 0x00000000   Number         0  stm32f0xx_hal_pwr.o ABSOLUTE
    ../Drivers/STM32F0xx_HAL_Driver/Src/stm32f0xx_hal_pwr_ex.c 0x00000000   Number         0  stm32f0xx_hal_pwr_ex.o ABSOLUTE
    ../Drivers/STM32F0xx_HAL_Driver/Src/stm32f0xx_hal_rcc.c 0x00000000   Number         0  stm32f0xx_hal_rcc.o ABSOLUTE
    ../Drivers/STM32F0xx_HAL_Driver/Src/stm32f0xx_hal_rcc_ex.c 0x00000000   Number         0  stm32f0xx_hal_rcc_ex.o ABSOLUTE
    ../Drivers/STM32F0xx_HAL_Driver/Src/stm32f0xx_hal_spi.c 0x00000000   Number         0  stm32f0xx_hal_spi.o ABSOLUTE
    ../Drivers/STM32F0xx_HAL_Driver/Src/stm32f0xx_hal_spi_ex.c 0x00000000   Number         0  stm32f0xx_hal_spi_ex.o ABSOLUTE
    ../Drivers/STM32F0xx_HAL_Driver/Src/stm32f0xx_hal_tim.c 0x00000000   Number         0  stm32f0xx_hal_tim.o ABSOLUTE
    ../Drivers/STM32F0xx_HAL_Driver/Src/stm32f0xx_hal_tim_ex.c 0x00000000   Number         0  stm32f0xx_hal_tim_ex.o ABSOLUTE
    ../Drivers/STM32F0xx_HAL_Driver/Src/stm32f0xx_hal_uart.c 0x00000000   Number         0  stm32f0xx_hal_uart.o ABSOLUTE
    ../Drivers/STM32F0xx_HAL_Driver/Src/stm32f0xx_hal_uart_ex.c 0x00000000   Number         0  stm32f0xx_hal_uart_ex.o ABSOLUTE
    ../Src/main.c                            0x00000000   Number         0  main.o ABSOLUTE
    ../Src/stm32f0xx_hal_msp.c               0x00000000   Number         0  stm32f0xx_hal_msp.o ABSOLUTE
    ../Src/stm32f0xx_it.c                    0x00000000   Number         0  stm32f0xx_it.o ABSOLUTE
    ../Src/system_stm32f0xx.c                0x00000000   Number         0  system_stm32f0xx.o ABSOLUTE
    ../clib/microlib/division.c              0x00000000   Number         0  idiv.o ABSOLUTE
    ../clib/microlib/division.c              0x00000000   Number         0  uldiv.o ABSOLUTE
    ../clib/microlib/division.c              0x00000000   Number         0  uidiv.o ABSOLUTE
    ../clib/microlib/init/entry.s            0x00000000   Number         0  entry10b.o ABSOLUTE
    ../clib/microlib/init/entry.s            0x00000000   Number         0  entry10a.o ABSOLUTE
    ../clib/microlib/init/entry.s            0x00000000   Number         0  entry9b.o ABSOLUTE
    ../clib/microlib/init/entry.s            0x00000000   Number         0  entry9a.o ABSOLUTE
    ../clib/microlib/init/entry.s            0x00000000   Number         0  entry8a.o ABSOLUTE
    ../clib/microlib/init/entry.s            0x00000000   Number         0  entry7b.o ABSOLUTE
    ../clib/microlib/init/entry.s            0x00000000   Number         0  entry7a.o ABSOLUTE
    ../clib/microlib/init/entry.s            0x00000000   Number         0  entry5.o ABSOLUTE
    ../clib/microlib/init/entry.s            0x00000000   Number         0  entry.o ABSOLUTE
    ../clib/microlib/init/entry.s            0x00000000   Number         0  entry2.o ABSOLUTE
    ../clib/microlib/init/entry.s            0x00000000   Number         0  entry11b.o ABSOLUTE
    ../clib/microlib/init/entry.s            0x00000000   Number         0  entry11a.o ABSOLUTE
    ../clib/microlib/init/entry.s            0x00000000   Number         0  entry8b.o ABSOLUTE
    ../clib/microlib/longlong.c              0x00000000   Number         0  llsshr.o ABSOLUTE
    ../clib/microlib/longlong.c              0x00000000   Number         0  llshl.o ABSOLUTE
    ../clib/microlib/longlong.c              0x00000000   Number         0  llushr.o ABSOLUTE
    ../clib/microlib/printf/printf.c         0x00000000   Number         0  printf4.o ABSOLUTE
    ../clib/microlib/printf/printf.c         0x00000000   Number         0  printfb.o ABSOLUTE
    ../clib/microlib/printf/printf.c         0x00000000   Number         0  printf0.o ABSOLUTE
    ../clib/microlib/printf/printf.c         0x00000000   Number         0  printf2.o ABSOLUTE
    ../clib/microlib/printf/printf.c         0x00000000   Number         0  printf3.o ABSOLUTE
    ../clib/microlib/printf/printf.c         0x00000000   Number         0  printf6.o ABSOLUTE
    ../clib/microlib/printf/printf.c         0x00000000   Number         0  printf5.o ABSOLUTE
    ../clib/microlib/printf/printf.c         0x00000000   Number         0  printf7.o ABSOLUTE
    ../clib/microlib/printf/printf.c         0x00000000   Number         0  printf8.o ABSOLUTE
    ../clib/microlib/printf/printf.c         0x00000000   Number         0  printfa.o ABSOLUTE
    ../clib/microlib/printf/printf.c         0x00000000   Number         0  printf1.o ABSOLUTE
    ../clib/microlib/printf/stubs.s          0x00000000   Number         0  stubs.o ABSOLUTE
    ../clib/microlib/stdio/fputc.c           0x00000000   Number         0  fputc.o ABSOLUTE
    ../clib/microlib/stdio/semi.s            0x00000000   Number         0  semi.o ABSOLUTE
    ../clib/microlib/stdio/streams.c         0x00000000   Number         0  stdout.o ABSOLUTE
    ../clib/microlib/stubs.s                 0x00000000   Number         0  iusefp.o ABSOLUTE
    ../clib/microlib/stubs.s                 0x00000000   Number         0  iusesemip.o ABSOLUTE
    ../fplib/microlib/f2d.c                  0x00000000   Number         0  f2d.o ABSOLUTE
    ../fplib/microlib/fpadd.c                0x00000000   Number         0  dadd.o ABSOLUTE
    ../fplib/microlib/fpadd.c                0x00000000   Number         0  fadd.o ABSOLUTE
    ../fplib/microlib/fpdiv.c                0x00000000   Number         0  ddiv.o ABSOLUTE
    ../fplib/microlib/fpdiv.c                0x00000000   Number         0  fdiv.o ABSOLUTE
    ../fplib/microlib/fpepilogue.c           0x00000000   Number         0  fepilogue.o ABSOLUTE
    ../fplib/microlib/fpepilogue.c           0x00000000   Number         0  depilogue.o ABSOLUTE
    ../fplib/microlib/fpfix.c                0x00000000   Number         0  ffixi.o ABSOLUTE
    ../fplib/microlib/fpfix.c                0x00000000   Number         0  ffixui.o ABSOLUTE
    ../fplib/microlib/fpfix.c                0x00000000   Number         0  dfixul.o ABSOLUTE
    ../fplib/microlib/fpflt.c                0x00000000   Number         0  fflti.o ABSOLUTE
    ../fplib/microlib/fpflt.c                0x00000000   Number         0  ffltui.o ABSOLUTE
    ../fplib/microlib/fpmul.c                0x00000000   Number         0  dmul.o ABSOLUTE
    ../fplib/microlib/fpmul.c                0x00000000   Number         0  fmul.o ABSOLUTE
    ../fplib/microlib/fpscalb.c              0x00000000   Number         0  fscalb.o ABSOLUTE
    ..\Drivers\CMSIS\DSP_Lib\Source\CommonTables\arm_common_tables.c 0x00000000   Number         0  arm_common_tables.o ABSOLUTE
    ..\Drivers\CMSIS\DSP_Lib\Source\FastMathFunctions\arm_sin_q15.c 0x00000000   Number         0  arm_sin_q15.o ABSOLUTE
    ..\Drivers\STM32F0xx_HAL_Driver\Src\stm32f0xx_hal.c 0x00000000   Number         0  stm32f0xx_hal.o ABSOLUTE
    ..\Drivers\STM32F0xx_HAL_Driver\Src\stm32f0xx_hal_cortex.c 0x00000000   Number         0  stm32f0xx_hal_cortex.o ABSOLUTE
    ..\Drivers\STM32F0xx_HAL_Driver\Src\stm32f0xx_hal_dma.c 0x00000000   Number         0  stm32f0xx_hal_dma.o ABSOLUTE
    ..\Drivers\STM32F0xx_HAL_Driver\Src\stm32f0xx_hal_flash.c 0x00000000   Number         0  stm32f0xx_hal_flash.o ABSOLUTE
    ..\Drivers\STM32F0xx_HAL_Driver\Src\stm32f0xx_hal_flash_ex.c 0x00000000   Number         0  stm32f0xx_hal_flash_ex.o ABSOLUTE
    ..\Drivers\STM32F0xx_HAL_Driver\Src\stm32f0xx_hal_gpio.c 0x00000000   Number         0  stm32f0xx_hal_gpio.o ABSOLUTE
    ..\Drivers\STM32F0xx_HAL_Driver\Src\stm32f0xx_hal_i2c.c 0x00000000   Number         0  stm32f0xx_hal_i2c.o ABSOLUTE
    ..\Drivers\STM32F0xx_HAL_Driver\Src\stm32f0xx_hal_i2c_ex.c 0x00000000   Number         0  stm32f0xx_hal_i2c_ex.o ABSOLUTE
    ..\Drivers\STM32F0xx_HAL_Driver\Src\stm32f0xx_hal_pwr.c 0x00000000   Number         0  stm32f0xx_hal_pwr.o ABSOLUTE
    ..\Drivers\STM32F0xx_HAL_Driver\Src\stm32f0xx_hal_pwr_ex.c 0x00000000   Number         0  stm32f0xx_hal_pwr_ex.o ABSOLUTE
    ..\Drivers\STM32F0xx_HAL_Driver\Src\stm32f0xx_hal_rcc.c 0x00000000   Number         0  stm32f0xx_hal_rcc.o ABSOLUTE
    ..\Drivers\STM32F0xx_HAL_Driver\Src\stm32f0xx_hal_rcc_ex.c 0x00000000   Number         0  stm32f0xx_hal_rcc_ex.o ABSOLUTE
    ..\Drivers\STM32F0xx_HAL_Driver\Src\stm32f0xx_hal_spi.c 0x00000000   Number         0  stm32f0xx_hal_spi.o ABSOLUTE
    ..\Drivers\STM32F0xx_HAL_Driver\Src\stm32f0xx_hal_spi_ex.c 0x00000000   Number         0  stm32f0xx_hal_spi_ex.o ABSOLUTE
    ..\Drivers\STM32F0xx_HAL_Driver\Src\stm32f0xx_hal_tim.c 0x00000000   Number         0  stm32f0xx_hal_tim.o ABSOLUTE
    ..\Drivers\STM32F0xx_HAL_Driver\Src\stm32f0xx_hal_tim_ex.c 0x00000000   Number         0  stm32f0xx_hal_tim_ex.o ABSOLUTE
    ..\Drivers\STM32F0xx_HAL_Driver\Src\stm32f0xx_hal_uart.c 0x00000000   Number         0  stm32f0xx_hal_uart.o ABSOLUTE
    ..\Drivers\STM32F0xx_HAL_Driver\Src\stm32f0xx_hal_uart_ex.c 0x00000000   Number         0  stm32f0xx_hal_uart_ex.o ABSOLUTE
    ..\Src\Junru-Libs.c                      0x00000000   Number         0  junru-libs.o ABSOLUTE
    ..\Src\main.c                            0x00000000   Number         0  main.o ABSOLUTE
    ..\Src\stm32f0xx_hal_msp.c               0x00000000   Number         0  stm32f0xx_hal_msp.o ABSOLUTE
    ..\Src\stm32f0xx_it.c                    0x00000000   Number         0  stm32f0xx_it.o ABSOLUTE
    ..\Src\system_stm32f0xx.c                0x00000000   Number         0  system_stm32f0xx.o ABSOLUTE
    ..\\Drivers\\CMSIS\\DSP_Lib\\Source\\CommonTables\\arm_common_tables.c 0x00000000   Number         0  arm_common_tables.o ABSOLUTE
    ..\\Drivers\\CMSIS\\DSP_Lib\\Source\\FastMathFunctions\\arm_sin_q15.c 0x00000000   Number         0  arm_sin_q15.o ABSOLUTE
    ..\\Src\\Junru-Libs.c                    0x00000000   Number         0  junru-libs.o ABSOLUTE
    BSP_UART.c                               0x00000000   Number         0  bsp_uart.o ABSOLUTE
    BSP_UART.c                               0x00000000   Number         0  bsp_uart.o ABSOLUTE
    cdrcmple.s                               0x00000000   Number         0  cdrcmple.o ABSOLUTE
    dc.s                                     0x00000000   Number         0  dc.o ABSOLUTE
    handlers.s                               0x00000000   Number         0  handlers.o ABSOLUTE
    init.s                                   0x00000000   Number         0  init.o ABSOLUTE
    startup_stm32f051x8.s                    0x00000000   Number         0  startup_stm32f051x8.o ABSOLUTE
    RESET                                    0x08000000   Section      188  startup_stm32f051x8.o(RESET)
    .ARM.Collect$$$$00000000                 0x080000bc   Section        0  entry.o(.ARM.Collect$$$$00000000)
    .ARM.Collect$$$$00000001                 0x080000bc   Section        4  entry2.o(.ARM.Collect$$$$00000001)
    .ARM.Collect$$$$00000004                 0x080000c0   Section        4  entry5.o(.ARM.Collect$$$$00000004)
    .ARM.Collect$$$$00000008                 0x080000c4   Section        0  entry7b.o(.ARM.Collect$$$$00000008)
    .ARM.Collect$$$$0000000A                 0x080000c4   Section        0  entry8b.o(.ARM.Collect$$$$0000000A)
    .ARM.Collect$$$$0000000B                 0x080000c4   Section        8  entry9a.o(.ARM.Collect$$$$0000000B)
    .ARM.Collect$$$$0000000D                 0x080000cc   Section        0  entry10a.o(.ARM.Collect$$$$0000000D)
    .ARM.Collect$$$$0000000F                 0x080000cc   Section        0  entry11a.o(.ARM.Collect$$$$0000000F)
    .ARM.Collect$$$$00002712                 0x080000cc   Section        4  entry2.o(.ARM.Collect$$$$00002712)
    __lit__00000000                          0x080000cc   Data           4  entry2.o(.ARM.Collect$$$$00002712)
    .text                                    0x080000d0   Section       28  startup_stm32f051x8.o(.text)
    .text                                    0x080000ec   Section        0  uidiv.o(.text)
    .text                                    0x08000118   Section        0  idiv.o(.text)
    .text                                    0x08000140   Section        0  llushr.o(.text)
    .text                                    0x08000162   Section        0  fmul.o(.text)
    .text                                    0x080001dc   Section        0  fdiv.o(.text)
    .text                                    0x08000258   Section        0  fscalb.o(.text)
    .text                                    0x08000270   Section        0  fflti.o(.text)
    .text                                    0x08000286   Section        0  ffltui.o(.text)
    .text                                    0x08000294   Section        0  ffixi.o(.text)
    .text                                    0x080002c6   Section        0  ffixui.o(.text)
    .text                                    0x080002ee   Section        0  f2d.o(.text)
    .text                                    0x08000316   Section        0  uldiv.o(.text)
    .text                                    0x08000376   Section        0  iusefp.o(.text)
    .text                                    0x08000376   Section        0  fepilogue.o(.text)
    .text                                    0x080003f8   Section        0  dadd.o(.text)
    .text                                    0x0800055c   Section        0  dmul.o(.text)
    .text                                    0x0800062c   Section        0  ddiv.o(.text)
    .text                                    0x0800071c   Section        0  dfixul.o(.text)
    .text                                    0x0800075c   Section       40  cdrcmple.o(.text)
    .text                                    0x08000784   Section       36  init.o(.text)
    .text                                    0x080007a8   Section        0  llshl.o(.text)
    .text                                    0x080007c8   Section        0  llsshr.o(.text)
    .text                                    0x080007ee   Section        0  depilogue.o(.text)
    i.DMA1_Channel2_3_IRQHandler             0x080008ac   Section        0  stm32f0xx_it.o(i.DMA1_Channel2_3_IRQHandler)
    i.DMA_CalcBaseAndBitshift                0x080008c4   Section        0  stm32f0xx_hal_dma.o(i.DMA_CalcBaseAndBitshift)
    DMA_CalcBaseAndBitshift                  0x080008c5   Thumb Code    26  stm32f0xx_hal_dma.o(i.DMA_CalcBaseAndBitshift)
    i.DMA_SetConfig                          0x080008e8   Section        0  stm32f0xx_hal_dma.o(i.DMA_SetConfig)
    DMA_SetConfig                            0x080008e9   Thumb Code    40  stm32f0xx_hal_dma.o(i.DMA_SetConfig)
    i.HAL_DMA_Abort_IT                       0x08000910   Section        0  stm32f0xx_hal_dma.o(i.HAL_DMA_Abort_IT)
    i.HAL_DMA_IRQHandler                     0x08000958   Section        0  stm32f0xx_hal_dma.o(i.HAL_DMA_IRQHandler)
    i.HAL_DMA_Init                           0x080009f4   Section        0  stm32f0xx_hal_dma.o(i.HAL_DMA_Init)
    i.HAL_DMA_Start_IT                       0x08000a4c   Section        0  stm32f0xx_hal_dma.o(i.HAL_DMA_Start_IT)
    i.HAL_GPIO_Init                          0x08000ab8   Section        0  stm32f0xx_hal_gpio.o(i.HAL_GPIO_Init)
    i.HAL_GPIO_ReadPin                       0x08000c00   Section        0  stm32f0xx_hal_gpio.o(i.HAL_GPIO_ReadPin)
    i.HAL_GPIO_WritePin                      0x08000c0a   Section        0  stm32f0xx_hal_gpio.o(i.HAL_GPIO_WritePin)
    i.HAL_GetTick                            0x08000c18   Section        0  stm32f0xx_hal.o(i.HAL_GetTick)
    i.HAL_HalfDuplex_Init                    0x08000c24   Section        0  stm32f0xx_hal_uart.o(i.HAL_HalfDuplex_Init)
    i.HAL_IncTick                            0x08000c9c   Section        0  stm32f0xx_hal.o(i.HAL_IncTick)
    i.HAL_Init                               0x08000cac   Section        0  stm32f0xx_hal.o(i.HAL_Init)
    i.HAL_InitTick                           0x08000ccc   Section        0  stm32f0xx_hal.o(i.HAL_InitTick)
    i.HAL_MspInit                            0x08000cf0   Section        0  stm32f0xx_hal_msp.o(i.HAL_MspInit)
    i.HAL_NVIC_EnableIRQ                     0x08000d28   Section        0  stm32f0xx_hal_cortex.o(i.HAL_NVIC_EnableIRQ)
    i.HAL_NVIC_SetPriority                   0x08000d3c   Section        0  stm32f0xx_hal_cortex.o(i.HAL_NVIC_SetPriority)
    i.HAL_RCCEx_PeriphCLKConfig              0x08000d44   Section        0  stm32f0xx_hal_rcc_ex.o(i.HAL_RCCEx_PeriphCLKConfig)
    i.HAL_RCC_ClockConfig                    0x08000e3c   Section        0  stm32f0xx_hal_rcc.o(i.HAL_RCC_ClockConfig)
    i.HAL_RCC_GetHCLKFreq                    0x08000f68   Section        0  stm32f0xx_hal_rcc.o(i.HAL_RCC_GetHCLKFreq)
    i.HAL_RCC_GetPCLK1Freq                   0x08000f74   Section        0  stm32f0xx_hal_rcc.o(i.HAL_RCC_GetPCLK1Freq)
    i.HAL_RCC_GetSysClockFreq                0x08000f94   Section        0  stm32f0xx_hal_rcc.o(i.HAL_RCC_GetSysClockFreq)
    i.HAL_RCC_OscConfig                      0x0800100c   Section        0  stm32f0xx_hal_rcc.o(i.HAL_RCC_OscConfig)
    i.HAL_SYSTICK_CLKSourceConfig            0x08001360   Section        0  stm32f0xx_hal_cortex.o(i.HAL_SYSTICK_CLKSourceConfig)
    i.HAL_SYSTICK_Callback                   0x08001378   Section        0  stm32f0xx_hal_cortex.o(i.HAL_SYSTICK_Callback)
    i.HAL_SYSTICK_Config                     0x0800137c   Section        0  stm32f0xx_hal_cortex.o(i.HAL_SYSTICK_Config)
    i.HAL_SYSTICK_IRQHandler                 0x080013ac   Section        0  stm32f0xx_hal_cortex.o(i.HAL_SYSTICK_IRQHandler)
    i.HAL_TIMEx_ConfigBreakDeadTime          0x080013b4   Section        0  stm32f0xx_hal_tim_ex.o(i.HAL_TIMEx_ConfigBreakDeadTime)
    i.HAL_TIMEx_MasterConfigSynchronization  0x08001414   Section        0  stm32f0xx_hal_tim_ex.o(i.HAL_TIMEx_MasterConfigSynchronization)
    i.HAL_TIM_MspPostInit                    0x0800145c   Section        0  stm32f0xx_hal_msp.o(i.HAL_TIM_MspPostInit)
    i.HAL_TIM_PWM_ConfigChannel              0x080014b0   Section        0  stm32f0xx_hal_tim.o(i.HAL_TIM_PWM_ConfigChannel)
    i.HAL_TIM_PWM_Init                       0x08001580   Section        0  stm32f0xx_hal_tim.o(i.HAL_TIM_PWM_Init)
    i.HAL_TIM_PWM_MspInit                    0x080015b4   Section        0  stm32f0xx_hal_msp.o(i.HAL_TIM_PWM_MspInit)
    i.HAL_TIM_PWM_Start                      0x080015f0   Section        0  stm32f0xx_hal_tim.o(i.HAL_TIM_PWM_Start)
    i.HAL_UARTEx_WakeupCallback              0x08001640   Section        0  stm32f0xx_hal_uart_ex.o(i.HAL_UARTEx_WakeupCallback)
    i.HAL_UART_ErrorCallback                 0x08001642   Section        0  stm32f0xx_hal_uart.o(i.HAL_UART_ErrorCallback)
    i.HAL_UART_IRQHandler                    0x08001644   Section        0  stm32f0xx_hal_uart.o(i.HAL_UART_IRQHandler)
    i.HAL_UART_MspInit                       0x08001778   Section        0  stm32f0xx_hal_msp.o(i.HAL_UART_MspInit)
    i.HAL_UART_RxCpltCallback                0x08001854   Section        0  junru-libs.o(i.HAL_UART_RxCpltCallback)
    i.HAL_UART_Transmit_DMA                  0x0800185c   Section        0  stm32f0xx_hal_uart.o(i.HAL_UART_Transmit_DMA)
    i.HAL_UART_TxCpltCallback                0x080018f4   Section        0  bsp_uart.o(i.HAL_UART_TxCpltCallback)
    i.HAL_UART_TxHalfCpltCallback            0x08001904   Section        0  stm32f0xx_hal_uart.o(i.HAL_UART_TxHalfCpltCallback)
    i.HardFault_Handler                      0x08001906   Section        0  stm32f0xx_it.o(i.HardFault_Handler)
    i.Junru_UART1_MessageHanlder             0x08001908   Section        0  bsp_uart.o(i.Junru_UART1_MessageHanlder)
    i.Junru_UsartFrameHanlder                0x080019b8   Section        0  junru-libs.o(i.Junru_UsartFrameHanlder)
    i.MX_GPIO_Init                           0x08001a14   Section        0  main.o(i.MX_GPIO_Init)
    MX_GPIO_Init                             0x08001a15   Thumb Code    96  main.o(i.MX_GPIO_Init)
    i.MX_TIM1_Init                           0x08001a78   Section        0  main.o(i.MX_TIM1_Init)
    MX_TIM1_Init                             0x08001a79   Thumb Code   178  main.o(i.MX_TIM1_Init)
    i.MX_TIM3_Init                           0x08001b34   Section        0  main.o(i.MX_TIM3_Init)
    MX_TIM3_Init                             0x08001b35   Thumb Code   106  main.o(i.MX_TIM3_Init)
    i.MX_USART1_UART_Init                    0x08001ba8   Section        0  main.o(i.MX_USART1_UART_Init)
    MX_USART1_UART_Init                      0x08001ba9   Thumb Code    46  main.o(i.MX_USART1_UART_Init)
    i.NMI_Handler                            0x08001be0   Section        0  stm32f0xx_it.o(i.NMI_Handler)
    i.NVIC_SetPriority                       0x08001be4   Section        0  stm32f0xx_hal_cortex.o(i.NVIC_SetPriority)
    NVIC_SetPriority                         0x08001be5   Thumb Code    60  stm32f0xx_hal_cortex.o(i.NVIC_SetPriority)
    i.PendSV_Handler                         0x08001c28   Section        0  stm32f0xx_it.o(i.PendSV_Handler)
    i.SPI_READ                               0x08001c2a   Section        0  main.o(i.SPI_READ)
    i.SPI_SEND                               0x08001c76   Section        0  main.o(i.SPI_SEND)
    i.SVC_Handler                            0x08001cbc   Section        0  stm32f0xx_it.o(i.SVC_Handler)
    i.StrEqual                               0x08001cbe   Section        0  bsp_uart.o(i.StrEqual)
    i.SysTick_Handler                        0x08001ce2   Section        0  stm32f0xx_it.o(i.SysTick_Handler)
    i.SystemClock_Config                     0x08001cee   Section        0  main.o(i.SystemClock_Config)
    i.SystemInit                             0x08001d64   Section        0  system_stm32f0xx.o(i.SystemInit)
    i.TIM_Base_SetConfig                     0x08001dc0   Section        0  stm32f0xx_hal_tim.o(i.TIM_Base_SetConfig)
    i.TIM_CCxChannelCmd                      0x08001e54   Section        0  stm32f0xx_hal_tim.o(i.TIM_CCxChannelCmd)
    i.TIM_OC1_SetConfig                      0x08001e6c   Section        0  stm32f0xx_hal_tim.o(i.TIM_OC1_SetConfig)
    TIM_OC1_SetConfig                        0x08001e6d   Thumb Code   120  stm32f0xx_hal_tim.o(i.TIM_OC1_SetConfig)
    i.TIM_OC2_SetConfig                      0x08001ef4   Section        0  stm32f0xx_hal_tim.o(i.TIM_OC2_SetConfig)
    i.TIM_OC3_SetConfig                      0x08001f74   Section        0  stm32f0xx_hal_tim.o(i.TIM_OC3_SetConfig)
    TIM_OC3_SetConfig                        0x08001f75   Thumb Code   114  stm32f0xx_hal_tim.o(i.TIM_OC3_SetConfig)
    i.TIM_OC4_SetConfig                      0x08001ff8   Section        0  stm32f0xx_hal_tim.o(i.TIM_OC4_SetConfig)
    TIM_OC4_SetConfig                        0x08001ff9   Thumb Code    90  stm32f0xx_hal_tim.o(i.TIM_OC4_SetConfig)
    i.UART_AdvFeatureConfig                  0x08002064   Section        0  stm32f0xx_hal_uart.o(i.UART_AdvFeatureConfig)
    i.UART_CheckIdleState                    0x08002130   Section        0  stm32f0xx_hal_uart.o(i.UART_CheckIdleState)
    i.UART_DMAAbortOnError                   0x08002198   Section        0  stm32f0xx_hal_uart.o(i.UART_DMAAbortOnError)
    UART_DMAAbortOnError                     0x08002199   Thumb Code    20  stm32f0xx_hal_uart.o(i.UART_DMAAbortOnError)
    i.UART_DMAError                          0x080021ac   Section        0  stm32f0xx_hal_uart.o(i.UART_DMAError)
    UART_DMAError                            0x080021ad   Thumb Code    74  stm32f0xx_hal_uart.o(i.UART_DMAError)
    i.UART_DMATransmitCplt                   0x080021f6   Section        0  stm32f0xx_hal_uart.o(i.UART_DMATransmitCplt)
    UART_DMATransmitCplt                     0x080021f7   Thumb Code    48  stm32f0xx_hal_uart.o(i.UART_DMATransmitCplt)
    i.UART_DMATxHalfCplt                     0x08002226   Section        0  stm32f0xx_hal_uart.o(i.UART_DMATxHalfCplt)
    UART_DMATxHalfCplt                       0x08002227   Thumb Code    10  stm32f0xx_hal_uart.o(i.UART_DMATxHalfCplt)
    i.UART_EndRxTransfer                     0x08002230   Section        0  stm32f0xx_hal_uart.o(i.UART_EndRxTransfer)
    UART_EndRxTransfer                       0x08002231   Thumb Code    30  stm32f0xx_hal_uart.o(i.UART_EndRxTransfer)
    i.UART_EndTransmit_IT                    0x0800224e   Section        0  stm32f0xx_hal_uart.o(i.UART_EndTransmit_IT)
    i.UART_EndTxTransfer                     0x08002268   Section        0  stm32f0xx_hal_uart.o(i.UART_EndTxTransfer)
    UART_EndTxTransfer                       0x08002269   Thumb Code    18  stm32f0xx_hal_uart.o(i.UART_EndTxTransfer)
    i.UART_HalfDuplex_Transmit_DMA           0x0800227c   Section        0  bsp_uart.o(i.UART_HalfDuplex_Transmit_DMA)
    i.UART_Receive_IT                        0x0800229c   Section        0  stm32f0xx_hal_uart.o(i.UART_Receive_IT)
    i.UART_SetConfig                         0x08002318   Section        0  stm32f0xx_hal_uart.o(i.UART_SetConfig)
    i.UART_Transmit_IT                       0x08002448   Section        0  stm32f0xx_hal_uart.o(i.UART_Transmit_IT)
    i.UART_WaitOnFlagUntilTimeout            0x080024ae   Section        0  stm32f0xx_hal_uart.o(i.UART_WaitOnFlagUntilTimeout)
    i.USART1_IRQHandler                      0x08002510   Section        0  stm32f0xx_it.o(i.USART1_IRQHandler)
    i.Uart_TransmitParament                  0x08002528   Section        0  bsp_uart.o(i.Uart_TransmitParament)
    i._Error_Handler                         0x0800257c   Section        0  main.o(i._Error_Handler)
    i.__0sprintf                             0x08002580   Section        0  printfa.o(i.__0sprintf)
    i.__ARM_clz                              0x080025a8   Section        0  depilogue.o(i.__ARM_clz)
    i.__scatterload_copy                     0x080025d6   Section       14  handlers.o(i.__scatterload_copy)
    i.__scatterload_null                     0x080025e4   Section        2  handlers.o(i.__scatterload_null)
    i.__scatterload_zeroinit                 0x080025e6   Section       14  handlers.o(i.__scatterload_zeroinit)
    i._fp_digits                             0x080025f4   Section        0  printfa.o(i._fp_digits)
    _fp_digits                               0x080025f5   Thumb Code   316  printfa.o(i._fp_digits)
    i._printf_core                           0x0800274c   Section        0  printfa.o(i._printf_core)
    _printf_core                             0x0800274d   Thumb Code  1754  printfa.o(i._printf_core)
    i._printf_post_padding                   0x08002e38   Section        0  printfa.o(i._printf_post_padding)
    _printf_post_padding                     0x08002e39   Thumb Code    32  printfa.o(i._printf_post_padding)
    i._printf_pre_padding                    0x08002e58   Section        0  printfa.o(i._printf_pre_padding)
    _printf_pre_padding                      0x08002e59   Thumb Code    44  printfa.o(i._printf_pre_padding)
    i._sputc                                 0x08002e84   Section        0  printfa.o(i._sputc)
    _sputc                                   0x08002e85   Thumb Code    10  printfa.o(i._sputc)
    i.arm_sin_q15                            0x08002e90   Section        0  arm_sin_q15.o(i.arm_sin_q15)
    i.function_A                             0x08002ec4   Section        0  main.o(i.function_A)
    i.function_B                             0x08002f40   Section        0  main.o(i.function_B)
    i.function_C                             0x08002fb4   Section        0  main.o(i.function_C)
    i.main                                   0x08003024   Section        0  main.o(i.main)
    i.read_encoder                           0x080030b0   Section        0  main.o(i.read_encoder)
    i.sin_control                            0x08003108   Section        0  main.o(i.sin_control)
    .constdata                               0x08003178   Section       16  system_stm32f0xx.o(.constdata)
    .constdata                               0x08003188   Section        8  system_stm32f0xx.o(.constdata)
    .constdata                               0x08003190   Section     1026  arm_common_tables.o(.constdata)
    .data                                    0x20000000   Section        4  system_stm32f0xx.o(.data)
    .data                                    0x20000004   Section        4  stm32f0xx_hal.o(.data)
    .data                                    0x20000008   Section       32  main.o(.data)
    .bss                                     0x20000028   Section      260  main.o(.bss)
    .bss                                     0x2000012c   Section       68  main.o(.bss)
    .bss                                     0x20000170   Section       68  main.o(.bss)
    .bss                                     0x200001b4   Section       30  main.o(.bss)
    .bss                                     0x200001d2   Section       30  bsp_uart.o(.bss)
    STACK                                    0x200001f0   Section     1024  startup_stm32f051x8.o(STACK)

    Global Symbols

    Symbol Name                              Value     Ov Type        Size  Object(Section)

    BuildAttributes$$THM_ISAv3M$S$PE$A:L22$X:L11$S22$IEEE1$IW$USESV6$~STKCKD$USESV7$~SHL$OTIME$ROPI$EBA8$MICROLIB$REQ8$PRES8$EABIv2 0x00000000   Number         0  anon$$obj.o ABSOLUTE
    __ARM_use_no_argv                        0x00000000   Number         0  main.o ABSOLUTE
    _printf_a                                0x00000000   Number         0  stubs.o ABSOLUTE
    _printf_c                                0x00000000   Number         0  stubs.o ABSOLUTE
    _printf_charcount                        0x00000000   Number         0  stubs.o ABSOLUTE
    _printf_d                                0x00000000   Number         0  stubs.o ABSOLUTE
    _printf_e                                0x00000000   Number         0  stubs.o ABSOLUTE
    _printf_f                                0x00000000   Number         0  stubs.o ABSOLUTE
    _printf_flags                            0x00000000   Number         0  stubs.o ABSOLUTE
    _printf_fp_dec                           0x00000000   Number         0  stubs.o ABSOLUTE
    _printf_fp_hex                           0x00000000   Number         0  stubs.o ABSOLUTE
    _printf_g                                0x00000000   Number         0  stubs.o ABSOLUTE
    _printf_i                                0x00000000   Number         0  stubs.o ABSOLUTE
    _printf_int_dec                          0x00000000   Number         0  stubs.o ABSOLUTE
    _printf_l                                0x00000000   Number         0  stubs.o ABSOLUTE
    _printf_lc                               0x00000000   Number         0  stubs.o ABSOLUTE
    _printf_ll                               0x00000000   Number         0  stubs.o ABSOLUTE
    _printf_lld                              0x00000000   Number         0  stubs.o ABSOLUTE
    _printf_lli                              0x00000000   Number         0  stubs.o ABSOLUTE
    _printf_llo                              0x00000000   Number         0  stubs.o ABSOLUTE
    _printf_llu                              0x00000000   Number         0  stubs.o ABSOLUTE
    _printf_llx                              0x00000000   Number         0  stubs.o ABSOLUTE
    _printf_longlong_dec                     0x00000000   Number         0  stubs.o ABSOLUTE
    _printf_longlong_hex                     0x00000000   Number         0  stubs.o ABSOLUTE
    _printf_longlong_oct                     0x00000000   Number         0  stubs.o ABSOLUTE
    _printf_ls                               0x00000000   Number         0  stubs.o ABSOLUTE
    _printf_mbtowc                           0x00000000   Number         0  stubs.o ABSOLUTE
    _printf_n                                0x00000000   Number         0  stubs.o ABSOLUTE
    _printf_o                                0x00000000   Number         0  stubs.o ABSOLUTE
    _printf_p                                0x00000000   Number         0  stubs.o ABSOLUTE
    _printf_percent                          0x00000000   Number         0  stubs.o ABSOLUTE
    _printf_pre_padding                      0x00000000   Number         0  stubs.o ABSOLUTE
    _printf_return_value                     0x00000000   Number         0  stubs.o ABSOLUTE
    _printf_s                                0x00000000   Number         0  stubs.o ABSOLUTE
    _printf_sizespec                         0x00000000   Number         0  stubs.o ABSOLUTE
    _printf_str                              0x00000000   Number         0  stubs.o ABSOLUTE
    _printf_truncate_signed                  0x00000000   Number         0  stubs.o ABSOLUTE
    _printf_truncate_unsigned                0x00000000   Number         0  stubs.o ABSOLUTE
    _printf_u                                0x00000000   Number         0  stubs.o ABSOLUTE
    _printf_wc                               0x00000000   Number         0  stubs.o ABSOLUTE
    _printf_wctomb                           0x00000000   Number         0  stubs.o ABSOLUTE
    _printf_widthprec                        0x00000000   Number         0  stubs.o ABSOLUTE
    _printf_x                                0x00000000   Number         0  stubs.o ABSOLUTE
    __cpp_initialize__aeabi_                  - Undefined Weak Reference
    __cxa_finalize                            - Undefined Weak Reference
    __decompress                              - Undefined Weak Reference
    _clock_init                               - Undefined Weak Reference
    _microlib_exit                            - Undefined Weak Reference
    __Vectors_Size                           0x000000bc   Number         0  startup_stm32f051x8.o ABSOLUTE
    __Vectors                                0x08000000   Data           4  startup_stm32f051x8.o(RESET)
    __Vectors_End                            0x080000bc   Data           0  startup_stm32f051x8.o(RESET)
    __main                                   0x080000bd   Thumb Code     0  entry.o(.ARM.Collect$$$$00000000)
    _main_stk                                0x080000bd   Thumb Code     0  entry2.o(.ARM.Collect$$$$00000001)
    _main_scatterload                        0x080000c1   Thumb Code     0  entry5.o(.ARM.Collect$$$$00000004)
    __main_after_scatterload                 0x080000c5   Thumb Code     0  entry5.o(.ARM.Collect$$$$00000004)
    _main_clock                              0x080000c5   Thumb Code     0  entry7b.o(.ARM.Collect$$$$00000008)
    _main_cpp_init                           0x080000c5   Thumb Code     0  entry8b.o(.ARM.Collect$$$$0000000A)
    _main_init                               0x080000c5   Thumb Code     0  entry9a.o(.ARM.Collect$$$$0000000B)
    __rt_final_cpp                           0x080000cd   Thumb Code     0  entry10a.o(.ARM.Collect$$$$0000000D)
    __rt_final_exit                          0x080000cd   Thumb Code     0  entry11a.o(.ARM.Collect$$$$0000000F)
    Reset_Handler                            0x080000d1   Thumb Code     8  startup_stm32f051x8.o(.text)
    ADC1_COMP_IRQHandler                     0x080000e3   Thumb Code     0  startup_stm32f051x8.o(.text)
    CEC_IRQHandler                           0x080000e3   Thumb Code     0  startup_stm32f051x8.o(.text)
    DMA1_Channel1_IRQHandler                 0x080000e3   Thumb Code     0  startup_stm32f051x8.o(.text)
    DMA1_Channel4_5_IRQHandler               0x080000e3   Thumb Code     0  startup_stm32f051x8.o(.text)
    EXTI0_1_IRQHandler                       0x080000e3   Thumb Code     0  startup_stm32f051x8.o(.text)
    EXTI2_3_IRQHandler                       0x080000e3   Thumb Code     0  startup_stm32f051x8.o(.text)
    EXTI4_15_IRQHandler                      0x080000e3   Thumb Code     0  startup_stm32f051x8.o(.text)
    FLASH_IRQHandler                         0x080000e3   Thumb Code     0  startup_stm32f051x8.o(.text)
    I2C1_IRQHandler                          0x080000e3   Thumb Code     0  startup_stm32f051x8.o(.text)
    I2C2_IRQHandler                          0x080000e3   Thumb Code     0  startup_stm32f051x8.o(.text)
    PVD_IRQHandler                           0x080000e3   Thumb Code     0  startup_stm32f051x8.o(.text)
    RCC_IRQHandler                           0x080000e3   Thumb Code     0  startup_stm32f051x8.o(.text)
    RTC_IRQHandler                           0x080000e3   Thumb Code     0  startup_stm32f051x8.o(.text)
    SPI1_IRQHandler                          0x080000e3   Thumb Code     0  startup_stm32f051x8.o(.text)
    SPI2_IRQHandler                          0x080000e3   Thumb Code     0  startup_stm32f051x8.o(.text)
    TIM14_IRQHandler                         0x080000e3   Thumb Code     0  startup_stm32f051x8.o(.text)
    TIM15_IRQHandler                         0x080000e3   Thumb Code     0  startup_stm32f051x8.o(.text)
    TIM16_IRQHandler                         0x080000e3   Thumb Code     0  startup_stm32f051x8.o(.text)
    TIM17_IRQHandler                         0x080000e3   Thumb Code     0  startup_stm32f051x8.o(.text)
    TIM1_BRK_UP_TRG_COM_IRQHandler           0x080000e3   Thumb Code     0  startup_stm32f051x8.o(.text)
    TIM1_CC_IRQHandler                       0x080000e3   Thumb Code     0  startup_stm32f051x8.o(.text)
    TIM2_IRQHandler                          0x080000e3   Thumb Code     0  startup_stm32f051x8.o(.text)
    TIM3_IRQHandler                          0x080000e3   Thumb Code     0  startup_stm32f051x8.o(.text)
    TIM6_DAC_IRQHandler                      0x080000e3   Thumb Code     0  startup_stm32f051x8.o(.text)
    TSC_IRQHandler                           0x080000e3   Thumb Code     0  startup_stm32f051x8.o(.text)
    USART2_IRQHandler                        0x080000e3   Thumb Code     0  startup_stm32f051x8.o(.text)
    WWDG_IRQHandler                          0x080000e3   Thumb Code     0  startup_stm32f051x8.o(.text)
    __aeabi_uidiv                            0x080000ed   Thumb Code     0  uidiv.o(.text)
    __aeabi_uidivmod                         0x080000ed   Thumb Code    44  uidiv.o(.text)
    __aeabi_idiv                             0x08000119   Thumb Code     0  idiv.o(.text)
    __aeabi_idivmod                          0x08000119   Thumb Code    40  idiv.o(.text)
    __aeabi_llsr                             0x08000141   Thumb Code    34  llushr.o(.text)
    _ll_ushift_r                             0x08000141   Thumb Code     0  llushr.o(.text)
    __aeabi_fmul                             0x08000163   Thumb Code   122  fmul.o(.text)
    __aeabi_fdiv                             0x080001dd   Thumb Code   124  fdiv.o(.text)
    __ARM_scalbnf                            0x08000259   Thumb Code    24  fscalb.o(.text)
    scalbnf                                  0x08000259   Thumb Code     0  fscalb.o(.text)
    __aeabi_i2f                              0x08000271   Thumb Code    22  fflti.o(.text)
    __aeabi_ui2f                             0x08000287   Thumb Code    14  ffltui.o(.text)
    __aeabi_f2iz                             0x08000295   Thumb Code    50  ffixi.o(.text)
    __aeabi_f2uiz                            0x080002c7   Thumb Code    40  ffixui.o(.text)
    __aeabi_f2d                              0x080002ef   Thumb Code    40  f2d.o(.text)
    __aeabi_uldivmod                         0x08000317   Thumb Code    96  uldiv.o(.text)
    __I$use$fp                               0x08000377   Thumb Code     0  iusefp.o(.text)
    _float_round                             0x08000377   Thumb Code    16  fepilogue.o(.text)
    _float_epilogue                          0x08000387   Thumb Code   114  fepilogue.o(.text)
    __aeabi_dadd                             0x080003f9   Thumb Code   328  dadd.o(.text)
    __aeabi_dsub                             0x08000541   Thumb Code    12  dadd.o(.text)
    __aeabi_drsub                            0x0800054d   Thumb Code    12  dadd.o(.text)
    __aeabi_dmul                             0x0800055d   Thumb Code   202  dmul.o(.text)
    __aeabi_ddiv                             0x0800062d   Thumb Code   234  ddiv.o(.text)
    __aeabi_d2ulz                            0x0800071d   Thumb Code    54  dfixul.o(.text)
    __aeabi_cdrcmple                         0x0800075d   Thumb Code    38  cdrcmple.o(.text)
    __scatterload                            0x08000785   Thumb Code    28  init.o(.text)
    __scatterload_rt2                        0x08000785   Thumb Code     0  init.o(.text)
    __aeabi_llsl                             0x080007a9   Thumb Code    32  llshl.o(.text)
    _ll_shift_l                              0x080007a9   Thumb Code     0  llshl.o(.text)
    __aeabi_lasr                             0x080007c9   Thumb Code    38  llsshr.o(.text)
    _ll_sshift_r                             0x080007c9   Thumb Code     0  llsshr.o(.text)
    _double_round                            0x080007ef   Thumb Code    26  depilogue.o(.text)
    _double_epilogue                         0x08000809   Thumb Code   164  depilogue.o(.text)
    DMA1_Channel2_3_IRQHandler               0x080008ad   Thumb Code    16  stm32f0xx_it.o(i.DMA1_Channel2_3_IRQHandler)
    HAL_DMA_Abort_IT                         0x08000911   Thumb Code    72  stm32f0xx_hal_dma.o(i.HAL_DMA_Abort_IT)
    HAL_DMA_IRQHandler                       0x08000959   Thumb Code   156  stm32f0xx_hal_dma.o(i.HAL_DMA_IRQHandler)
    HAL_DMA_Init                             0x080009f5   Thumb Code    84  stm32f0xx_hal_dma.o(i.HAL_DMA_Init)
    HAL_DMA_Start_IT                         0x08000a4d   Thumb Code   106  stm32f0xx_hal_dma.o(i.HAL_DMA_Start_IT)
    HAL_GPIO_Init                            0x08000ab9   Thumb Code   302  stm32f0xx_hal_gpio.o(i.HAL_GPIO_Init)
    HAL_GPIO_ReadPin                         0x08000c01   Thumb Code    10  stm32f0xx_hal_gpio.o(i.HAL_GPIO_ReadPin)
    HAL_GPIO_WritePin                        0x08000c0b   Thumb Code    12  stm32f0xx_hal_gpio.o(i.HAL_GPIO_WritePin)
    HAL_GetTick                              0x08000c19   Thumb Code     6  stm32f0xx_hal.o(i.HAL_GetTick)
    HAL_HalfDuplex_Init                      0x08000c25   Thumb Code   118  stm32f0xx_hal_uart.o(i.HAL_HalfDuplex_Init)
    HAL_IncTick                              0x08000c9d   Thumb Code    10  stm32f0xx_hal.o(i.HAL_IncTick)
    HAL_Init                                 0x08000cad   Thumb Code    26  stm32f0xx_hal.o(i.HAL_Init)
    HAL_InitTick                             0x08000ccd   Thumb Code    34  stm32f0xx_hal.o(i.HAL_InitTick)
    HAL_MspInit                              0x08000cf1   Thumb Code    50  stm32f0xx_hal_msp.o(i.HAL_MspInit)
    HAL_NVIC_EnableIRQ                       0x08000d29   Thumb Code    14  stm32f0xx_hal_cortex.o(i.HAL_NVIC_EnableIRQ)
    HAL_NVIC_SetPriority                     0x08000d3d   Thumb Code     8  stm32f0xx_hal_cortex.o(i.HAL_NVIC_SetPriority)
    HAL_RCCEx_PeriphCLKConfig                0x08000d45   Thumb Code   236  stm32f0xx_hal_rcc_ex.o(i.HAL_RCCEx_PeriphCLKConfig)
    HAL_RCC_ClockConfig                      0x08000e3d   Thumb Code   280  stm32f0xx_hal_rcc.o(i.HAL_RCC_ClockConfig)
    HAL_RCC_GetHCLKFreq                      0x08000f69   Thumb Code     6  stm32f0xx_hal_rcc.o(i.HAL_RCC_GetHCLKFreq)
    HAL_RCC_GetPCLK1Freq                     0x08000f75   Thumb Code    20  stm32f0xx_hal_rcc.o(i.HAL_RCC_GetPCLK1Freq)
    HAL_RCC_GetSysClockFreq                  0x08000f95   Thumb Code    76  stm32f0xx_hal_rcc.o(i.HAL_RCC_GetSysClockFreq)
    HAL_RCC_OscConfig                        0x0800100d   Thumb Code   840  stm32f0xx_hal_rcc.o(i.HAL_RCC_OscConfig)
    HAL_SYSTICK_CLKSourceConfig              0x08001361   Thumb Code    20  stm32f0xx_hal_cortex.o(i.HAL_SYSTICK_CLKSourceConfig)
    HAL_SYSTICK_Callback                     0x08001379   Thumb Code     2  stm32f0xx_hal_cortex.o(i.HAL_SYSTICK_Callback)
    HAL_SYSTICK_Config                       0x0800137d   Thumb Code    38  stm32f0xx_hal_cortex.o(i.HAL_SYSTICK_Config)
    HAL_SYSTICK_IRQHandler                   0x080013ad   Thumb Code     8  stm32f0xx_hal_cortex.o(i.HAL_SYSTICK_IRQHandler)
    HAL_TIMEx_ConfigBreakDeadTime            0x080013b5   Thumb Code    96  stm32f0xx_hal_tim_ex.o(i.HAL_TIMEx_ConfigBreakDeadTime)
    HAL_TIMEx_MasterConfigSynchronization    0x08001415   Thumb Code    72  stm32f0xx_hal_tim_ex.o(i.HAL_TIMEx_MasterConfigSynchronization)
    HAL_TIM_MspPostInit                      0x0800145d   Thumb Code    70  stm32f0xx_hal_msp.o(i.HAL_TIM_MspPostInit)
    HAL_TIM_PWM_ConfigChannel                0x080014b1   Thumb Code   208  stm32f0xx_hal_tim.o(i.HAL_TIM_PWM_ConfigChannel)
    HAL_TIM_PWM_Init                         0x08001581   Thumb Code    52  stm32f0xx_hal_tim.o(i.HAL_TIM_PWM_Init)
    HAL_TIM_PWM_MspInit                      0x080015b5   Thumb Code    46  stm32f0xx_hal_msp.o(i.HAL_TIM_PWM_MspInit)
    HAL_TIM_PWM_Start                        0x080015f1   Thumb Code    62  stm32f0xx_hal_tim.o(i.HAL_TIM_PWM_Start)
    HAL_UARTEx_WakeupCallback                0x08001641   Thumb Code     2  stm32f0xx_hal_uart_ex.o(i.HAL_UARTEx_WakeupCallback)
    HAL_UART_ErrorCallback                   0x08001643   Thumb Code     2  stm32f0xx_hal_uart.o(i.HAL_UART_ErrorCallback)
    HAL_UART_IRQHandler                      0x08001645   Thumb Code   304  stm32f0xx_hal_uart.o(i.HAL_UART_IRQHandler)
    HAL_UART_MspInit                         0x08001779   Thumb Code   168  stm32f0xx_hal_msp.o(i.HAL_UART_MspInit)
    HAL_UART_RxCpltCallback                  0x08001855   Thumb Code     8  junru-libs.o(i.HAL_UART_RxCpltCallback)
    HAL_UART_Transmit_DMA                    0x0800185d   Thumb Code   138  stm32f0xx_hal_uart.o(i.HAL_UART_Transmit_DMA)
    HAL_UART_TxCpltCallback                  0x080018f5   Thumb Code    12  bsp_uart.o(i.HAL_UART_TxCpltCallback)
    HAL_UART_TxHalfCpltCallback              0x08001905   Thumb Code     2  stm32f0xx_hal_uart.o(i.HAL_UART_TxHalfCpltCallback)
    HardFault_Handler                        0x08001907   Thumb Code     2  stm32f0xx_it.o(i.HardFault_Handler)
    Junru_UART1_MessageHanlder               0x08001909   Thumb Code   132  bsp_uart.o(i.Junru_UART1_MessageHanlder)
    Junru_UsartFrameHanlder                  0x080019b9   Thumb Code    82  junru-libs.o(i.Junru_UsartFrameHanlder)
    NMI_Handler                              0x08001be1   Thumb Code     2  stm32f0xx_it.o(i.NMI_Handler)
    PendSV_Handler                           0x08001c29   Thumb Code     2  stm32f0xx_it.o(i.PendSV_Handler)
    SPI_READ                                 0x08001c2b   Thumb Code    76  main.o(i.SPI_READ)
    SPI_SEND                                 0x08001c77   Thumb Code    70  main.o(i.SPI_SEND)
    SVC_Handler                              0x08001cbd   Thumb Code     2  stm32f0xx_it.o(i.SVC_Handler)
    StrEqual                                 0x08001cbf   Thumb Code    36  bsp_uart.o(i.StrEqual)
    SysTick_Handler                          0x08001ce3   Thumb Code    12  stm32f0xx_it.o(i.SysTick_Handler)
    SystemClock_Config                       0x08001cef   Thumb Code   118  main.o(i.SystemClock_Config)
    SystemInit                               0x08001d65   Thumb Code    78  system_stm32f0xx.o(i.SystemInit)
    TIM_Base_SetConfig                       0x08001dc1   Thumb Code   124  stm32f0xx_hal_tim.o(i.TIM_Base_SetConfig)
    TIM_CCxChannelCmd                        0x08001e55   Thumb Code    22  stm32f0xx_hal_tim.o(i.TIM_CCxChannelCmd)
    TIM_OC2_SetConfig                        0x08001ef5   Thumb Code   110  stm32f0xx_hal_tim.o(i.TIM_OC2_SetConfig)
    UART_AdvFeatureConfig                    0x08002065   Thumb Code   202  stm32f0xx_hal_uart.o(i.UART_AdvFeatureConfig)
    UART_CheckIdleState                      0x08002131   Thumb Code    96  stm32f0xx_hal_uart.o(i.UART_CheckIdleState)
    UART_EndTransmit_IT                      0x0800224f   Thumb Code    26  stm32f0xx_hal_uart.o(i.UART_EndTransmit_IT)
    UART_HalfDuplex_Transmit_DMA             0x0800227d   Thumb Code    26  bsp_uart.o(i.UART_HalfDuplex_Transmit_DMA)
    UART_Receive_IT                          0x0800229d   Thumb Code   122  stm32f0xx_hal_uart.o(i.UART_Receive_IT)
    UART_SetConfig                           0x08002319   Thumb Code   280  stm32f0xx_hal_uart.o(i.UART_SetConfig)
    UART_Transmit_IT                         0x08002449   Thumb Code   102  stm32f0xx_hal_uart.o(i.UART_Transmit_IT)
    UART_WaitOnFlagUntilTimeout              0x080024af   Thumb Code    98  stm32f0xx_hal_uart.o(i.UART_WaitOnFlagUntilTimeout)
    USART1_IRQHandler                        0x08002511   Thumb Code    18  stm32f0xx_it.o(i.USART1_IRQHandler)
    Uart_TransmitParament                    0x08002529   Thumb Code    46  bsp_uart.o(i.Uart_TransmitParament)
    _Error_Handler                           0x0800257d   Thumb Code     2  main.o(i._Error_Handler)
    __0sprintf                               0x08002581   Thumb Code    36  printfa.o(i.__0sprintf)
    __1sprintf                               0x08002581   Thumb Code     0  printfa.o(i.__0sprintf)
    __2sprintf                               0x08002581   Thumb Code     0  printfa.o(i.__0sprintf)
    __c89sprintf                             0x08002581   Thumb Code     0  printfa.o(i.__0sprintf)
    sprintf                                  0x08002581   Thumb Code     0  printfa.o(i.__0sprintf)
    __ARM_clz                                0x080025a9   Thumb Code    46  depilogue.o(i.__ARM_clz)
    __scatterload_copy                       0x080025d7   Thumb Code    14  handlers.o(i.__scatterload_copy)
    __scatterload_null                       0x080025e5   Thumb Code     2  handlers.o(i.__scatterload_null)
    __scatterload_zeroinit                   0x080025e7   Thumb Code    14  handlers.o(i.__scatterload_zeroinit)
    arm_sin_q15                              0x08002e91   Thumb Code    46  arm_sin_q15.o(i.arm_sin_q15)
    function_A                               0x08002ec5   Thumb Code   114  main.o(i.function_A)
    function_B                               0x08002f41   Thumb Code   106  main.o(i.function_B)
    function_C                               0x08002fb5   Thumb Code   102  main.o(i.function_C)
    main                                     0x08003025   Thumb Code   128  main.o(i.main)
    read_encoder                             0x080030b1   Thumb Code    72  main.o(i.read_encoder)
    sin_control                              0x08003109   Thumb Code    94  main.o(i.sin_control)
    AHBPrescTable                            0x08003178   Data          16  system_stm32f0xx.o(.constdata)
    APBPrescTable                            0x08003188   Data           8  system_stm32f0xx.o(.constdata)
    sinTable_q15                             0x08003190   Data        1026  arm_common_tables.o(.constdata)
    Region$$Table$$Base                      0x08003594   Number         0  anon$$obj.o(Region$$Table)
    Region$$Table$$Limit                     0x080035b4   Number         0  anon$$obj.o(Region$$Table)
    SystemCoreClock                          0x20000000   Data           4  system_stm32f0xx.o(.data)
    uwTick                                   0x20000004   Data           4  stm32f0xx_hal.o(.data)
    CurrentMode                              0x20000008   Data           1  main.o(.data)
    speed1                                   0x2000000a   Data           2  main.o(.data)
    phase_change_count                       0x2000000c   Data           2  main.o(.data)
    angle                                    0x2000000e   Data           2  main.o(.data)
    testANgle                                0x20000010   Data           2  main.o(.data)
    angle_enc                                0x20000014   Data           4  main.o(.data)
    angle_float                              0x20000018   Data           4  main.o(.data)
    last_anlge                               0x2000001c   Data           4  main.o(.data)
    initial_angle                            0x20000020   Data           4  main.o(.data)
    lastTransTime                            0x20000024   Data           4  main.o(.data)
    htim1                                    0x20000028   Data          64  main.o(.bss)
    htim3                                    0x20000068   Data          64  main.o(.bss)
    huart1                                   0x200000a8   Data         112  main.o(.bss)
    MotorStatus                              0x20000118   Data          20  main.o(.bss)
    hdma_usart1_rx                           0x2000012c   Data          68  main.o(.bss)
    hdma_usart1_tx                           0x20000170   Data          68  main.o(.bss)
    uart_data                                0x200001b4   Data          30  main.o(.bss)
    UART_TRANS_STR                           0x200001d2   Data          30  bsp_uart.o(.bss)
    __initial_sp                             0x200005f0   Data           0  startup_stm32f051x8.o(STACK)



==============================================================================

Memory Map of the image

  Image Entry point : 0x080000bd

  Load Region LR_IROM1 (Base: 0x08000000, Size: 0x000035dc, Max: 0x00010000, ABSOLUTE)

    Execution Region ER_IROM1 (Base: 0x08000000, Size: 0x000035b4, Max: 0x00010000, ABSOLUTE)

    Base Addr    Size         Type   Attr      Idx    E Section Name        Object

    0x08000000   0x000000bc   Data   RO            3    RESET               startup_stm32f051x8.o
    0x080000bc   0x00000000   Code   RO         3234  * .ARM.Collect$$$$00000000  mc_p.l(entry.o)
    0x080000bc   0x00000004   Code   RO         3522    .ARM.Collect$$$$00000001  mc_p.l(entry2.o)
    0x080000c0   0x00000004   Code   RO         3525    .ARM.Collect$$$$00000004  mc_p.l(entry5.o)
    0x080000c4   0x00000000   Code   RO         3527    .ARM.Collect$$$$00000008  mc_p.l(entry7b.o)
    0x080000c4   0x00000000   Code   RO         3529    .ARM.Collect$$$$0000000A  mc_p.l(entry8b.o)
    0x080000c4   0x00000008   Code   RO         3530    .ARM.Collect$$$$0000000B  mc_p.l(entry9a.o)
    0x080000cc   0x00000000   Code   RO         3532    .ARM.Collect$$$$0000000D  mc_p.l(entry10a.o)
    0x080000cc   0x00000000   Code   RO         3534    .ARM.Collect$$$$0000000F  mc_p.l(entry11a.o)
    0x080000cc   0x00000004   Code   RO         3523    .ARM.Collect$$$$00002712  mc_p.l(entry2.o)
    0x080000d0   0x0000001c   Code   RO            4    .text               startup_stm32f051x8.o
    0x080000ec   0x0000002c   Code   RO         3237    .text               mc_p.l(uidiv.o)
    0x08000118   0x00000028   Code   RO         3239    .text               mc_p.l(idiv.o)
    0x08000140   0x00000022   Code   RO         3241    .text               mc_p.l(llushr.o)
    0x08000162   0x0000007a   Code   RO         3506    .text               mf_p.l(fmul.o)
    0x080001dc   0x0000007c   Code   RO         3508    .text               mf_p.l(fdiv.o)
    0x08000258   0x00000018   Code   RO         3510    .text               mf_p.l(fscalb.o)
    0x08000270   0x00000016   Code   RO         3512    .text               mf_p.l(fflti.o)
    0x08000286   0x0000000e   Code   RO         3514    .text               mf_p.l(ffltui.o)
    0x08000294   0x00000032   Code   RO         3516    .text               mf_p.l(ffixi.o)
    0x080002c6   0x00000028   Code   RO         3518    .text               mf_p.l(ffixui.o)
    0x080002ee   0x00000028   Code   RO         3520    .text               mf_p.l(f2d.o)
    0x08000316   0x00000060   Code   RO         3539    .text               mc_p.l(uldiv.o)
    0x08000376   0x00000000   Code   RO         3541    .text               mc_p.l(iusefp.o)
    0x08000376   0x00000082   Code   RO         3542    .text               mf_p.l(fepilogue.o)
    0x080003f8   0x00000164   Code   RO         3544    .text               mf_p.l(dadd.o)
    0x0800055c   0x000000d0   Code   RO         3546    .text               mf_p.l(dmul.o)
    0x0800062c   0x000000f0   Code   RO         3548    .text               mf_p.l(ddiv.o)
    0x0800071c   0x00000040   Code   RO         3550    .text               mf_p.l(dfixul.o)
    0x0800075c   0x00000028   Code   RO         3552    .text               mf_p.l(cdrcmple.o)
    0x08000784   0x00000024   Code   RO         3554    .text               mc_p.l(init.o)
    0x080007a8   0x00000020   Code   RO         3557    .text               mc_p.l(llshl.o)
    0x080007c8   0x00000026   Code   RO         3559    .text               mc_p.l(llsshr.o)
    0x080007ee   0x000000be   Code   RO         3562    .text               mf_p.l(depilogue.o)
    0x080008ac   0x00000018   Code   RO         2861    i.DMA1_Channel2_3_IRQHandler  stm32f0xx_it.o
    0x080008c4   0x00000024   Code   RO          135    i.DMA_CalcBaseAndBitshift  stm32f0xx_hal_dma.o
    0x080008e8   0x00000028   Code   RO          136    i.DMA_SetConfig     stm32f0xx_hal_dma.o
    0x08000910   0x00000048   Code   RO          138    i.HAL_DMA_Abort_IT  stm32f0xx_hal_dma.o
    0x08000958   0x0000009c   Code   RO          142    i.HAL_DMA_IRQHandler  stm32f0xx_hal_dma.o
    0x080009f4   0x00000058   Code   RO          143    i.HAL_DMA_Init      stm32f0xx_hal_dma.o
    0x08000a4c   0x0000006a   Code   RO          147    i.HAL_DMA_Start_IT  stm32f0xx_hal_dma.o
    0x08000ab6   0x00000002   PAD
    0x08000ab8   0x00000148   Code   RO         1549    i.HAL_GPIO_Init     stm32f0xx_hal_gpio.o
    0x08000c00   0x0000000a   Code   RO         1551    i.HAL_GPIO_ReadPin  stm32f0xx_hal_gpio.o
    0x08000c0a   0x0000000c   Code   RO         1553    i.HAL_GPIO_WritePin  stm32f0xx_hal_gpio.o
    0x08000c16   0x00000002   PAD
    0x08000c18   0x0000000c   Code   RO          371    i.HAL_GetTick       stm32f0xx_hal.o
    0x08000c24   0x00000076   Code   RO         2410    i.HAL_HalfDuplex_Init  stm32f0xx_hal_uart.o
    0x08000c9a   0x00000002   PAD
    0x08000c9c   0x00000010   Code   RO          375    i.HAL_IncTick       stm32f0xx_hal.o
    0x08000cac   0x00000020   Code   RO          376    i.HAL_Init          stm32f0xx_hal.o
    0x08000ccc   0x00000022   Code   RO          377    i.HAL_InitTick      stm32f0xx_hal.o
    0x08000cee   0x00000002   PAD
    0x08000cf0   0x00000038   Code   RO         3069    i.HAL_MspInit       stm32f0xx_hal_msp.o
    0x08000d28   0x00000014   Code   RO         1016    i.HAL_NVIC_EnableIRQ  stm32f0xx_hal_cortex.o
    0x08000d3c   0x00000008   Code   RO         1020    i.HAL_NVIC_SetPriority  stm32f0xx_hal_cortex.o
    0x08000d44   0x000000f8   Code   RO          515    i.HAL_RCCEx_PeriphCLKConfig  stm32f0xx_hal_rcc_ex.o
    0x08000e3c   0x0000012c   Code   RO          596    i.HAL_RCC_ClockConfig  stm32f0xx_hal_rcc.o
    0x08000f68   0x0000000c   Code   RO          601    i.HAL_RCC_GetHCLKFreq  stm32f0xx_hal_rcc.o
    0x08000f74   0x00000020   Code   RO          603    i.HAL_RCC_GetPCLK1Freq  stm32f0xx_hal_rcc.o
    0x08000f94   0x00000078   Code   RO          604    i.HAL_RCC_GetSysClockFreq  stm32f0xx_hal_rcc.o
    0x0800100c   0x00000354   Code   RO          607    i.HAL_RCC_OscConfig  stm32f0xx_hal_rcc.o
    0x08001360   0x00000018   Code   RO         1022    i.HAL_SYSTICK_CLKSourceConfig  stm32f0xx_hal_cortex.o
    0x08001378   0x00000002   Code   RO         1023    i.HAL_SYSTICK_Callback  stm32f0xx_hal_cortex.o
    0x0800137a   0x00000002   PAD
    0x0800137c   0x00000030   Code   RO         1024    i.HAL_SYSTICK_Config  stm32f0xx_hal_cortex.o
    0x080013ac   0x00000008   Code   RO         1025    i.HAL_SYSTICK_IRQHandler  stm32f0xx_hal_cortex.o
    0x080013b4   0x00000060   Code   RO          689    i.HAL_TIMEx_ConfigBreakDeadTime  stm32f0xx_hal_tim_ex.o
    0x08001414   0x00000048   Code   RO          704    i.HAL_TIMEx_MasterConfigSynchronization  stm32f0xx_hal_tim_ex.o
    0x0800145c   0x00000054   Code   RO         3070    i.HAL_TIM_MspPostInit  stm32f0xx_hal_msp.o
    0x080014b0   0x000000d0   Code   RO         1678    i.HAL_TIM_PWM_ConfigChannel  stm32f0xx_hal_tim.o
    0x08001580   0x00000034   Code   RO         1681    i.HAL_TIM_PWM_Init  stm32f0xx_hal_tim.o
    0x080015b4   0x0000003c   Code   RO         3072    i.HAL_TIM_PWM_MspInit  stm32f0xx_hal_msp.o
    0x080015f0   0x00000050   Code   RO         1685    i.HAL_TIM_PWM_Start  stm32f0xx_hal_tim.o
    0x08001640   0x00000002   Code   RO         2353    i.HAL_UARTEx_WakeupCallback  stm32f0xx_hal_uart_ex.o
    0x08001642   0x00000002   Code   RO         2428    i.HAL_UART_ErrorCallback  stm32f0xx_hal_uart.o
    0x08001644   0x00000134   Code   RO         2431    i.HAL_UART_IRQHandler  stm32f0xx_hal_uart.o
    0x08001778   0x000000dc   Code   RO         3074    i.HAL_UART_MspInit  stm32f0xx_hal_msp.o
    0x08001854   0x00000008   Code   RO         3120    i.HAL_UART_RxCpltCallback  junru-libs.o
    0x0800185c   0x00000098   Code   RO         2441    i.HAL_UART_Transmit_DMA  stm32f0xx_hal_uart.o
    0x080018f4   0x00000010   Code   RO         3186    i.HAL_UART_TxCpltCallback  bsp_uart.o
    0x08001904   0x00000002   Code   RO         2444    i.HAL_UART_TxHalfCpltCallback  stm32f0xx_hal_uart.o
    0x08001906   0x00000002   Code   RO         2862    i.HardFault_Handler  stm32f0xx_it.o
    0x08001908   0x000000b0   Code   RO         3187    i.Junru_UART1_MessageHanlder  bsp_uart.o
    0x080019b8   0x0000005c   Code   RO         3127    i.Junru_UsartFrameHanlder  junru-libs.o
    0x08001a14   0x00000064   Code   RO         2925    i.MX_GPIO_Init      main.o
    0x08001a78   0x000000bc   Code   RO         2926    i.MX_TIM1_Init      main.o
    0x08001b34   0x00000074   Code   RO         2927    i.MX_TIM3_Init      main.o
    0x08001ba8   0x00000038   Code   RO         2928    i.MX_USART1_UART_Init  main.o
    0x08001be0   0x00000002   Code   RO         2863    i.NMI_Handler       stm32f0xx_it.o
    0x08001be2   0x00000002   PAD
    0x08001be4   0x00000044   Code   RO         1026    i.NVIC_SetPriority  stm32f0xx_hal_cortex.o
    0x08001c28   0x00000002   Code   RO         2864    i.PendSV_Handler    stm32f0xx_it.o
    0x08001c2a   0x0000004c   Code   RO         2930    i.SPI_READ          main.o
    0x08001c76   0x00000046   Code   RO         2931    i.SPI_SEND          main.o
    0x08001cbc   0x00000002   Code   RO         2865    i.SVC_Handler       stm32f0xx_it.o
    0x08001cbe   0x00000024   Code   RO         3188    i.StrEqual          bsp_uart.o
    0x08001ce2   0x0000000c   Code   RO         2866    i.SysTick_Handler   stm32f0xx_it.o
    0x08001cee   0x00000076   Code   RO         2932    i.SystemClock_Config  main.o
    0x08001d64   0x0000005c   Code   RO           13    i.SystemInit        system_stm32f0xx.o
    0x08001dc0   0x00000094   Code   RO         1696    i.TIM_Base_SetConfig  stm32f0xx_hal_tim.o
    0x08001e54   0x00000016   Code   RO         1697    i.TIM_CCxChannelCmd  stm32f0xx_hal_tim.o
    0x08001e6a   0x00000002   PAD
    0x08001e6c   0x00000088   Code   RO         1705    i.TIM_OC1_SetConfig  stm32f0xx_hal_tim.o
    0x08001ef4   0x00000080   Code   RO         1706    i.TIM_OC2_SetConfig  stm32f0xx_hal_tim.o
    0x08001f74   0x00000084   Code   RO         1707    i.TIM_OC3_SetConfig  stm32f0xx_hal_tim.o
    0x08001ff8   0x0000006c   Code   RO         1708    i.TIM_OC4_SetConfig  stm32f0xx_hal_tim.o
    0x08002064   0x000000ca   Code   RO         2445    i.UART_AdvFeatureConfig  stm32f0xx_hal_uart.o
    0x0800212e   0x00000002   PAD
    0x08002130   0x00000068   Code   RO         2446    i.UART_CheckIdleState  stm32f0xx_hal_uart.o
    0x08002198   0x00000014   Code   RO         2447    i.UART_DMAAbortOnError  stm32f0xx_hal_uart.o
    0x080021ac   0x0000004a   Code   RO         2448    i.UART_DMAError     stm32f0xx_hal_uart.o
    0x080021f6   0x00000030   Code   RO         2453    i.UART_DMATransmitCplt  stm32f0xx_hal_uart.o
    0x08002226   0x0000000a   Code   RO         2455    i.UART_DMATxHalfCplt  stm32f0xx_hal_uart.o
    0x08002230   0x0000001e   Code   RO         2457    i.UART_EndRxTransfer  stm32f0xx_hal_uart.o
    0x0800224e   0x0000001a   Code   RO         2458    i.UART_EndTransmit_IT  stm32f0xx_hal_uart.o
    0x08002268   0x00000012   Code   RO         2459    i.UART_EndTxTransfer  stm32f0xx_hal_uart.o
    0x0800227a   0x00000002   PAD
    0x0800227c   0x00000020   Code   RO         3189    i.UART_HalfDuplex_Transmit_DMA  bsp_uart.o
    0x0800229c   0x0000007a   Code   RO         2460    i.UART_Receive_IT   stm32f0xx_hal_uart.o
    0x08002316   0x00000002   PAD
    0x08002318   0x00000130   Code   RO         2461    i.UART_SetConfig    stm32f0xx_hal_uart.o
    0x08002448   0x00000066   Code   RO         2462    i.UART_Transmit_IT  stm32f0xx_hal_uart.o
    0x080024ae   0x00000062   Code   RO         2463    i.UART_WaitOnFlagUntilTimeout  stm32f0xx_hal_uart.o
    0x08002510   0x00000018   Code   RO         2867    i.USART1_IRQHandler  stm32f0xx_it.o
    0x08002528   0x00000054   Code   RO         3190    i.Uart_TransmitParament  bsp_uart.o
    0x0800257c   0x00000002   Code   RO         2933    i._Error_Handler    main.o
    0x0800257e   0x00000002   PAD
    0x08002580   0x00000028   Code   RO         3478    i.__0sprintf        mc_p.l(printfa.o)
    0x080025a8   0x0000002e   Code   RO         3564    i.__ARM_clz         mf_p.l(depilogue.o)
    0x080025d6   0x0000000e   Code   RO         3568    i.__scatterload_copy  mc_p.l(handlers.o)
    0x080025e4   0x00000002   Code   RO         3569    i.__scatterload_null  mc_p.l(handlers.o)
    0x080025e6   0x0000000e   Code   RO         3570    i.__scatterload_zeroinit  mc_p.l(handlers.o)
    0x080025f4   0x00000158   Code   RO         3483    i._fp_digits        mc_p.l(printfa.o)
    0x0800274c   0x000006ec   Code   RO         3484    i._printf_core      mc_p.l(printfa.o)
    0x08002e38   0x00000020   Code   RO         3485    i._printf_post_padding  mc_p.l(printfa.o)
    0x08002e58   0x0000002c   Code   RO         3486    i._printf_pre_padding  mc_p.l(printfa.o)
    0x08002e84   0x0000000a   Code   RO         3488    i._sputc            mc_p.l(printfa.o)
    0x08002e8e   0x00000002   PAD
    0x08002e90   0x00000034   Code   RO         2746    i.arm_sin_q15       arm_sin_q15.o
    0x08002ec4   0x0000007c   Code   RO         2937    i.function_A        main.o
    0x08002f40   0x00000074   Code   RO         2938    i.function_B        main.o
    0x08002fb4   0x00000070   Code   RO         2939    i.function_C        main.o
    0x08003024   0x0000008c   Code   RO         2940    i.main              main.o
    0x080030b0   0x00000058   Code   RO         2942    i.read_encoder      main.o
    0x08003108   0x00000070   Code   RO         2943    i.sin_control       main.o
    0x08003178   0x00000010   Data   RO           14    .constdata          system_stm32f0xx.o
    0x08003188   0x00000008   Data   RO           15    .constdata          system_stm32f0xx.o
    0x08003190   0x00000402   Data   RO         2841    .constdata          arm_common_tables.o
    0x08003592   0x00000002   PAD
    0x08003594   0x00000020   Data   RO         3566    Region$$Table       anon$$obj.o


    Execution Region RW_IRAM1 (Base: 0x20000000, Size: 0x000005f0, Max: 0x00002000, ABSOLUTE)

    Base Addr    Size         Type   Attr      Idx    E Section Name        Object

    0x20000000   0x00000004   Data   RW           16    .data               system_stm32f0xx.o
    0x20000004   0x00000004   Data   RW          382    .data               stm32f0xx_hal.o
    0x20000008   0x00000020   Data   RW         2949    .data               main.o
    0x20000028   0x00000104   Zero   RW         2944    .bss                main.o
    0x2000012c   0x00000044   Zero   RW         2945    .bss                main.o
    0x20000170   0x00000044   Zero   RW         2946    .bss                main.o
    0x200001b4   0x0000001e   Zero   RW         2947    .bss                main.o
    0x200001d2   0x0000001e   Zero   RW         3191    .bss                bsp_uart.o
    0x200001f0   0x00000400   Zero   RW            1    STACK               startup_stm32f051x8.o


==============================================================================

Image component sizes


      Code (inc. data)   RO Data    RW Data    ZI Data      Debug   Object Name

         0          0       1026          0          0       4744   arm_common_tables.o
        52          6          0          0          0      15694   arm_sin_q15.o
       344         92          0          0         30       3679   bsp_uart.o
       100         10          0          0          0       1376   junru-libs.o
      1418        110          0         32        426      10780   main.o
        28          8        188          0       1024        608   startup_stm32f051x8.o
        94         18          0          4          0       2983   stm32f0xx_hal.o
       178         28          0          0          0      10407   stm32f0xx_hal_cortex.o
       498         14          0          0          0       4726   stm32f0xx_hal_dma.o
       350         26          0          0          0       2811   stm32f0xx_hal_gpio.o
       420         86          0          0          0       2821   stm32f0xx_hal_msp.o
      1316         94          0          0          0       4921   stm32f0xx_hal_rcc.o
       248         12          0          0          0       1352   stm32f0xx_hal_rcc_ex.o
      1014        112          0          0          0       7514   stm32f0xx_hal_tim.o
       168          0          0          0          0       2028   stm32f0xx_hal_tim_ex.o
      1740         50          0          0          0      12703   stm32f0xx_hal_uart.o
         2          0          0          0          0        952   stm32f0xx_hal_uart_ex.o
        68         14          0          0          0       2920   stm32f0xx_it.o
        92         14         24          4          0     316143   system_stm32f0xx.o

    ----------------------------------------------------------------------
      8152        694       1272         40       1480     409162   Object Totals
         0          0         32          0          0          0   (incl. Generated)
        22          0          2          0          0          0   (incl. Padding)

    ----------------------------------------------------------------------

      Code (inc. data)   RO Data    RW Data    ZI Data      Debug   Library Member Name

         0          0          0          0          0          0   entry.o
         0          0          0          0          0          0   entry10a.o
         0          0          0          0          0          0   entry11a.o
         8          4          0          0          0          0   entry2.o
         4          0          0          0          0          0   entry5.o
         0          0          0          0          0          0   entry7b.o
         0          0          0          0          0          0   entry8b.o
         8          4          0          0          0          0   entry9a.o
        30          0          0          0          0          0   handlers.o
        40          0          0          0          0         72   idiv.o
        36          8          0          0          0         68   init.o
         0          0          0          0          0          0   iusefp.o
        32          0          0          0          0         68   llshl.o
        38          0          0          0          0         68   llsshr.o
        34          0          0          0          0         68   llushr.o
      2242         94          0          0          0        472   printfa.o
        44          0          0          0          0         72   uidiv.o
        96          0          0          0          0         84   uldiv.o
        40          2          0          0          0         68   cdrcmple.o
       356          4          0          0          0        140   dadd.o
       240          6          0          0          0         84   ddiv.o
       236          0          0          0          0        216   depilogue.o
        64         10          0          0          0         68   dfixul.o
       208          6          0          0          0         88   dmul.o
        40          0          0          0          0         60   f2d.o
       124          0          0          0          0         72   fdiv.o
       130          0          0          0          0        144   fepilogue.o
        50          0          0          0          0         60   ffixi.o
        40          0          0          0          0         60   ffixui.o
        22          0          0          0          0         68   fflti.o
        14          0          0          0          0         68   ffltui.o
       122          0          0          0          0         72   fmul.o
        24          0          0          0          0         60   fscalb.o

    ----------------------------------------------------------------------
      4324        138          0          0          0       2300   Library Totals
         2          0          0          0          0          0   (incl. Padding)

    ----------------------------------------------------------------------

      Code (inc. data)   RO Data    RW Data    ZI Data      Debug   Library Name

      2612        110          0          0          0        972   mc_p.l
      1710         28          0          0          0       1328   mf_p.l

    ----------------------------------------------------------------------
      4324        138          0          0          0       2300   Library Totals

    ----------------------------------------------------------------------

==============================================================================


      Code (inc. data)   RO Data    RW Data    ZI Data      Debug   

     12476        832       1272         40       1480     406590   Grand Totals
     12476        832       1272         40       1480     406590   ELF Image Totals
     12476        832       1272         40          0          0   ROM Totals

==============================================================================

    Total RO  Size (Code + RO Data)                13748 (  13.43kB)
    Total RW  Size (RW Data + ZI Data)              1520 (   1.48kB)
    Total ROM Size (Code + RO Data + RW Data)      13788 (  13.46kB)

==============================================================================

